:03000000021DB42A
:0C1DB400787FE4F6D8FD758107021DFB66
:101C6B004400A30405060750008A0000000A000088
:101C7B00000A0000000A0000000A44009F00000058
:101C8B000044009A000000044100210041009E0026
:101C9B0044005A0000000044008600000000500081
:101CAB000100000000000000000000000000000028
:101CBB000050003600000000000000000000000093
:101CCB0000000000440022000000005000760000DD
:101CDB0000000000000000000000000000004800B1
:101CEB00A7000000000000000044005600000000A8
:101CFB005000110000000000000000000000000078
:071D0B000000004100000090
:0B1241009000EDEBF0A3EAF0A3E9F051
:10124C00E4900101F0A3F09000F0F0D2CC7F01FE0D
:10125C00120000E4900101F0900101E0F9C3940444
:10126C004003021713900000E075F004A4FF9001F6
:10127C0017E5F0F0A3EFF074A3291220D69001012A
:10128C00E0FD25E024F1F582E43400F583EEF0A3D3
:10129C00EFF0ED25E024F1F582E43400F583E0FE77
:1012AC00A3E0FF9000EDE0FBA3E0FAA3E0F975F0FA
:1012BC0002EDA4F58285F083EE8FF01210C4ED25BB
:1012CC00E024F1F582E43400F583E0FF900117E0AF
:1012DC00FCA3E0FD2400F58274003CF583EFF09054
:1012EC000101E0FF25E024F1F582E43400F583A34D
:1012FC00E0FE74002DF58274003CF583EEF074A3CF
:10130C002F1220D6900101E0FD25E024F9F582E4AE
:10131C003400F583EEF0A3EFF0ED25E024F9F5822F
:10132C00E43400F583E0FF900117E0FCA3E0FD241A
:10133C0000F58274003CF583EFF0900101E0FF258D
:10134C00E024F9F582E43400F583A3E0FE74002D6B
:10135C00F58274003CF583EEF074002DF582740078
:10136C003CF583E0FEEF25E025E02411F582E43422
:10137C0000F583EEF074002DF58274003CF583E0EB
:10138C00FF900101E0FE25E025E02412F582E43413
:10139C0000F583EFF0900117E0FCA3E0FD2400F5CD
:1013AC008274003CF583E0FFEE25E025E02413F584
:1013BC0082E43400F583EFF074002DF58274003C68
:1013CC00F583E0FF900101E0FE25E025E02414F513
:1013DC0082E43400F583EFF0EE25E025E0248AF575
:1013EC0082E43400F583E0FCA3E0FDA3E0FEA3E07F
:1013FC00FF9001031211B4900101E0FB25E025E000
:10140C002436F582E43400F583E0FCA3E0FDA3E090
:10141C00FEA3E0FF9001071211B4EB25E025E024B8
:10142C0001F582E43400F583E0FCA3E0FDA3E0FECB
:10143C00A3E0FF90010B1211B4900103E0FCA3E0B8
:10144C00FDA3E0FEA3E0FF900101E0FB25E025E019
:10145C002426F582E43400F5831211B4EB25E02444
:10146C00F1F582E43400F583E0FCA3E0FDE4120D19
:10147C007B900103E0F8A3E0F9A3E0FAA3E0FB12F0
:10148C000CFDE4FFFE50497D707C41900103E0F8B7
:10149C00A3E0F9A3E0FAA3E0FB120B57C004C005CC
:1014AC00C006C007900101E025E024F1F582E43488
:1014BC0000F583E0FCA3E0FDE4120D7BD003D00229
:1014CC00D001D000120A66E4FBFA7980784180479B
:1014DC007D7C7C42900103E0F8A3E0F9A3E0FAA341
:1014EC00E0FB120B57C004C005C006C007900101F9
:1014FC00E025E024F1F582E43400F583E0FCA3E080
:10150C00FDE4120D7BD003D002D001D000120A668C
:10151C00E4FBFA79807842120C6090010F1211B43E
:10152C00900101E025E024F1F582E43400F583E03C
:10153C00FCA3E0FDE4120D7B90010FE0F8A3E0F9B1
:10154C00A3E0FAA3E0FB120A629001131211B4900B
:10155C00010BE0FCA3E0FDA3E0FEA3E0FF90011370
:10156C00E0F8A3E0F9A3E0FAA3E0FB120CFD602481
:10157C004022900113E0FCA3E0FDA3E0FEA3E0FFFA
:10158C00900101E025E025E02401F582E43400F52A
:10159C00831211B4900107E0FCA3E0FDA3E0FEA3CD
:1015AC00E0FF90010FE0F8A3E0F9A3E0FAA3E0FB61
:1015BC00120CFD6024402290010FE0FCA3E0FDA37F
:1015CC00E0FEA3E0FF900101E025E025E02436F5E4
:1015DC0082E43400F5831211B490010FE0FCA3E017
:1015EC00FDA3E0FEA3E0FF900101E0FB25E025E078
:1015FC00248AF582E43400F5831211B4900113E0CF
:10160C00FCA3E0FDA3E0FEA3E0FFEB25E025E02436
:10161C0046F582E43400F5831211B4EB25E024A7DF
:10162C00F582E43400F583E0FEA3E0FFEB25E02433
:10163C00F1F582E43400F583E0FCA3E0FDD39FECEC
:10164C009E4014900101E025E024A7F582E43400CB
:10165C00F583ECF0A3EDF0900000E0C3947F50050F
:10166C00E004F08066E4900000F0FF7E02FDFC9048
:10167C000000E0F8A3E0F9A3E0FAA3E0FB1210F1FC
:10168C00120000E4FF7E02FDFC900000E0F8A3E0F5
:10169C00F9A3E0FAA3E0FB1210F17B017A007900C8
:1016AC009000007402F0A3E4F0120000900000E03F
:1016BC00FCA3E0FDA3E0FEA3E02401FFE43EFEE476
:1016CC003DFDE43CFC9000001211B4E4FFFE7D16DD
:1016DC007C43900113E0F8A3E0F9A3E0FAA3E0FB4C
:1016EC00120CFD60194017900101E0FF7401A8076E
:1016FC00088002C333D8FCFF9000F0E02FF090017B
:10170C0001E004F0021264C2CC900000E004F090FE
:04171C0000F0E0FFFA
:0117200022A6
:10172100E4900121F0A31211C000000000900126F5
:101731001211C00000000090012B1211C000000026
:101741000090012F1211C00000000090013312110E
:10175100C000000000E4900137F0A3F0A3F0A3F073
:10176100A3F0A3F0A3F0A3F090009AE0FCA3E0FDA6
:10177100A3E0FEA3E02404FFE43EFEE43DFDE43CDF
:10178100FC90009A1211B4900021E004F07B017AE0
:10179100017919121241900121EFF0E490012AF030
:1017A1007B017A00795E90012AE0FD900121E090B1
:1017B10000B3F0ED25E02419F582E43401F583E06E
:1017C100FFA3E09000B4CFF0A3EFF012000390016B
:1017D1002AE02456F582E43400F583EFF090012AE3
:1017E100E004F0E0C3940440B7E490012AF09001D2
:1017F1002AE0FFC39404400302194D74562FF58269
:10180100E43400F583E06404600A90012AE0121ECA
:10181100AFEF606D90012BE0F8A3E0F9A3E0FAA32C
:10182100E0FBC000C001C002C00390012AE0240413
:10183100FF74017E00A807088005C333CE33CED8DC
:10184100F9FFEE3395E0FDFCD003D002D001D000CA
:10185100EB4FFFEA4EFEE94DFDE84CFC90012B12E7
:1018610011B4900133E0FCA3E0FDA3E0FEA3E0246A
:1018710001FFE43EFEE43DFDE43CFC900133121126
:10188100B490012AE02456F582E43400F583E0FFA8
:1018910064036004EFB4044E90012BE0F8A3E0F977
:1018A100A3E0FAA3E0FBC000C001C002C0039001A5
:1018B1002AE02408FF74017E00A807088005C333CD
:1018C100CE33CED8F9FFEE3395E0FDFCD003D00244
:1018D100D001D000EB4FFFEA4EFEE94DFDE84CFC94
:1018E10090012B1211B490012AE02456F582E434C0
:1018F10000F583E0B4014C90012BE0F8A3E0F9A3DB
:10190100E0FAA3E0FBC000C001C002C00390012ABD
:10191100E0FF74017E00A807088005C333CE33CEF3
:10192100D8F9FFEE3395E0FDFCD003D002D001D011
:1019310000EB4FFFEA4EFEE94DFDE84CFC90012B18
:101941001211B490012AE004F00217EF90012BA3C9
:10195100A3A3E0540FFFEF600B9001377401F090E7
:10196100013BEFF090012BA3A3E0FEEE540FFEEE3E
:10197100602C9001387401F090012BA3A3E0FEA329
:10198100E4FFEE540FFEE4FDFC780812116C9001A7
:101991003CEFF0121F0DEF6005E4900138F090016B
:1019A1002BA3A3A3E054F0FFE4FEFDFCEF603E7F18
:1019B10002900133E0F8A3E0F9A3E0FAA3E0FBC34E
:1019C10012115B702890013904F090012BA3A3A39D
:1019D100E054F0FFE4FEFDFC780412116C90013D2F
:1019E100EFF0121FB5EF6005E4900139F090012B83
:1019F100A3A3A3E054F0FFE4FEFDFCEF603F7F03EF
:101A0100900133E0F8A3E0F9A3E0FAA3E0FBC312ED
:101A1100115B402990013A7401F090012BA3A3A31B
:101A2100E054F0FFE4FEFDFC780412116C90013EDD
:101A3100EFF0121F62EF6005E490013AF090012B84
:101A41001211C000000000900137E0602A90013BB4
:101A5100E0FF12207390012BE0F8A3E0F9A3E0FA74
:101A6100A3E0FB90013BE0FFEB4FFFEAFEE9FDE85D
:101A7100FC90012B1211B4900138E0603190013CCF
:101A8100E0FF12203D90012BE0F8A3E0F9A3E0FA7A
:101A9100A3E0FB90013CE0FE3395E0FDFCEBFFEAA7
:101AA1004EFEE94DFDE84CFC90012B1211B4900162
:101AB10039E0603990013DE0FF12210790012BE0F0
:101AC100F8A3E0F9A3E0FAA3E0FB90013DE075F093
:101AD10010A4FFAEF0EE3395E0FDFCEB4FFFEA4EB4
:101AE100FEE94DFDE84CFC90012B1211B490013A36
:101AF100E0603990013EE0FF1220A590012BE0F853
:101B0100A3E0F9A3E0FAA3E0FB90013EE075F01039
:101B1100A4FFAEF0EE3395E0FDFCEB4FFFEA4EFE85
:101B2100E94DFDE84CFC90012B1211B490012BE022
:101B3100FCA3E0FDA3E0FEA3E0FFEC4D4E4F601CD3
:101B410090012BA3A3A3E090005A1211B490012B92
:101B5100E0FCA3E0FDA3E0FEA3E0FF22E4FFFEFD25
:011B6100FC87
:011B62002260
:100003009000B2EDF09000AFEBF0A3EAF0A3E9F0BB
:10001300A3E075F006A429F9EA35F0FA78477C01E4
:100023007D017E007F06120F051221F9E4FCFDFE1F
:100033009000B61211B49000B2E075F006A4FF90E0
:1000430000AFE0FBA3E0FAA3E02FF9EA35F0FA787A
:100053004D7C017D017E007F06120F051221D5E440
:10006300FCFDFE9000BA1211B49000BAE0FCA3E0CC
:10007300FDA3E0FEA3E0FFEC4D4E4F9000B26020E5
:10008300E075F006A4FF9000AFE0FBA3E0FAA3E065
:100093002FF9EA35F0FA9000017401120F71801DF7
:1000A300E075F006A4FF9000AFE0FBA3E0FAA3E045
:1000B3002FF9EA35F0FA900001E4120FB69000B27E
:1000C300E075F006A4FF9000AFE0FBA3E0FAA3E025
:1000D3002FF9EA35F0FA78537C017D017E007F0623
:1000E300120F051221E7E4FCFDFEEF9000B260223F
:1000F300E075F006A4FF9000AFE0FBA3E0FAA3E0F5
:100103002FF9EA35F0FA900002E475F00112107746
:10011300801FE075F006A4FF9000AFE0FBA3E0FAB8
:10012300A3E02FF9EA35F0FA900002E4F5F012109B
:10013300C49000B2E0FF7401A807088002C333D85B
:10014300FCFF9000B3E05F9000BEF09000B6E0FCCF
:10015300A3E0FDA3E0FEA3E0FF1211F10193000071
:1001630000000231000000010231000000020231F0
:1001730000000003026600000004054000000005C3
:1001830005A10000000606830000000700000A091D
:100193009000BEE0D394005003020A5C9000BAE0E2
:1001A300FCA3E0FDA3E0FEA3E0FFEC4D4E4F600394
:1001B300020A5C9000B4E0FCA3E0FD9000B2E0759D
:1001C300F006A4FF9000AFE0FBA3E0FAA3E02FF951
:1001D300EA35F0FA900004EC8DF01210C4122201FB
:1001E3009000B2E075F006A4FF9000AFE0FBA3E03F
:1001F300FAA3E02FF9EA35F0FA1222099000B2E0EF
:10020300FB25E025E02401F582E43400F583121197
:10021300C000000000EB75F006A4FF9000AFE0FB08
:10022300A3E0FAA3E02FF9EA35F0FA02061A9000E8
:10023300B4E0FCA3E0FD9000B2E075F006A4FF90EB
:1002430000AFE0FBA3E0FAA3E02FF9EA35F0FA9060
:100253000004EC8DF01210779000B612117FAD07F9
:10026300020A039000B2E0FB25E025E02401F582B9
:10027300E43400F583E0FCA3E0FDA3E0FEA3E0FF8C
:100283009000CF1211B4EB25E025E02446F582E47B
:100293003400F583E0FCA3E0FDA3E0FEA3E0FF90C0
:1002A30000D31211B49000B2E025E025E02436F526
:1002B30082E43400F583E0FCA3E0FDA3E0FEA3E0C9
:1002C300FF9000D71211B4E4FBFAF978419000CF04
:1002D300E0FCA3E0FDA3E0FEA3E0FF120C609000AE
:1002E300D3E0F8A3E0F9A3E0FAA3E0FB120CFD606E
:1002F3000250030204C19000B2E075F006A4FF901F
:1003030000AFE0FBA3E0FAA3E02FF9EA35F0FA909F
:10031300000412103FFDACF0E4120D7BE4FBFA790C
:10032300807840120C60C004C005C006C007E4FF1B
:10033300FE7DE07C409000D7E0F8A3E0F9A3E0FA6B
:10034300A3E0FB120B57E4FBFAF97841120C60A807
:1003530004A905AA06AB07D007D006D005D004121E
:100363000CFD40030204C1122005EF9000B270217E
:10037300E075F006A4FF9000AFE0FBA3E0FAA3E072
:100383002FF9EA35F0FA1222119000B212213580CA
:10039300261221359000B2E075F006A4FF9000AF5D
:1003A300E0FBA3E0FAA3E02FF9EA35F0FA900002AC
:1003B300E475F0051210C49000B2E075F006A4FFD6
:1003C3009000AFE0FBA3E0FAA3E02FF9EA35F0FADF
:1003D30090000412103FFDACF0E4120D7BE4FBFA35
:1003E30079807840120C609000E31211B49000E31E
:1003F300E0FCA3E0FDA3E0FEA3E0FF9000B2E0FB7E
:1004030025E025E0248AF582E43400F5831211B453
:100413009000E3E0FCA3E0FDA3E0FEA3E0FFEB25F7
:10042300E025E02436F582E43400F5831211B4901C
:100433000022E0FCA3E0FDA3E0FEA3E0FF9000BFE9
:100443001211B490009AE0FCA3E0FDA3E0FEA3E048
:10045300FF9000C31211B49000BFE0FCA3E0FDA322
:10046300E0FEA3E02420FFE43EFEE43DFDE43CFC8B
:10047300A3E0F8A3E0F9A3E0FAA3E0FBD312115B36
:1004830050030205219000C3E0FCA3E0FDA3E0FEBE
:10049300A3E0FF9000221211B49000B2E075F006C1
:1004A300A4FF9000AFE0FBA3E0FAA3E02FF9EA3545
:1004B300F0FA900004E4F5F01210C47F0122122038
:1004C30005EF9000B270361221A212216012218131
:1004D3009000B2E075F006A4FF9000AFE0FBA3E04C
:1004E300FAA3E02FF9EA35F0FA900001E4120FB60F
:1004F300900002E4F5F01210C4E4FD801E122163A3
:100503009000B2E075F006A4FF9000AFE0FBA3E01B
:10051300FAA3E02FF9EA35F0FA7D06122153900091
:10052300B2E075F006A4FF9000AFE0FBA3E0FAA3EE
:10053300E02FF9EA35F0FA900004020A569000B26F
:10054300E075F006A4FF9000AFE0FBA3E0FAA3E0A0
:100553002FF9EA35F0FA900001120F44B41021127A
:1005630021799000B2E075F006A4FF9000AFE0FBA4
:10057300A3E0FAA3E02FF9EA35F0FA7D06020A03B5
:100583009000B2E075F006A4FF9000AFE0FBA3E09B
:10059300FAA3E02FF9EA35F0FA7D05020A03900089
:1005A300BEE0D3940040759000BAE0FCA3E0FDA345
:1005B300E0FEA3E0FFEC4D4E4F70619000B2E0759A
:1005C300F006A4FF9000AFE0FBA3E0FAA3E02FF94D
:1005D300EA35F0FA1222019000B2E0FB25E025E0B3
:1005E3002401F582E43400F5831211C000000000F9
:1005F3009000B4E0FCA3E0FDEB75F006A4FF9000CF
:10060300AFE0FBA3E0FAA3E02FF9EA35F0FA90009C
:1006130004EC8DF01210C47D01020A039000B2E0D5
:1006230075F006A4FF9000AFE0FBA3E0FAA3E02F70
:10063300F9EA35F0FA90000212103FFFAEF07C00A9
:100643007DE1120FEAED4C9000B27019E075F006EF
:10065300A4FF9000AFA3E0FAA3E02FF9EA35F0FA84
:100663007D07020A03E075F006A4FF9000AFE0FBEC
:10067300A3E0FAA3E02FF9EA35F0FA7D06020A03B4
:100683009000B2E0FB25E025E02436F582E4340057
:10069300F583E0FCA3E0FDA3E0FEA3E0FF9000DB15
:1006A3001211B4EB25E025E0248AF582E43400F549
:1006B30083E0FCA3E0FDA3E0FEA3E0FF9000DF12D4
:1006C30011B49000B2E025E025E02426F582E4345D
:1006D30000F583E0F8A3E0F9A3E0FAA3E0FB9000C0
:1006E300DFE0FCA3E0FDA3E0FEA3E0FF120A6290BB
:1006F30000DBE0F8A3E0F9A3E0FAA3E0FB120C604F
:100703007B6F7A127983783A120CFD400302084614
:100713009000B2E025E025E02426F582E43400F5DC
:1007230083E0F8A3E0F9A3E0FAA3E0FB9000DFE0A5
:10073300FCA3E0FDA3E0FEA3E0FF120A629000DB4E
:10074300E0F8A3E0F9A3E0FAA3E0FB120C607B005E
:100753007AC879AF7846120B579000E71211B4E4C8
:10076300FFFEFDFC9000E7E0F8A3E0F9A3E0FAA3A5
:0C077300E0FB120CFD600250030208467F
:10077F009000B2E075F006A4FF9000AFE0FBA3E09D
:10078F00FAA3E02FF9EA35F0FA90000212103FFDBC
:10079F00ACF0E4120D7B9000E7E0F8A3E0F9A3E0E2
:1007AF00FAA3E0FB120A62120DB49000EBEEF0A375
:1007BF00EFF0D39400EE648094809000B2E075F077
:1007CF00064058A4FF9000AFE0FBA3E0FAA3E02F90
:1007DF00F9EA35F0FA90000212103FFDACF0E41286
:1007EF000D7B9000E7E0F8A3E0F9A3E0FAA3E0FBAC
:1007FF00120A62120DB4AD07AC069000B2E075F0AC
:10080F0006A4FF9000AFE0FBA3E0FAA3E02FF9EA04
:10081F0035F0FA900002EC8DF08019A4FF9000AF34
:10082F00E0FBA3E0FAA3E02FF9EA35F0FA9000021B
:07083F00E475F0011210C482
:100846009000B2E075F006A4FF9000AFE0FBA3E0D5
:10085600FAA3E02FF9EA35F0FA90000212103FC32E
:1008660094E1E5F094005003020A5C9000DFE0F8A2
:10087600A3E0F9A3E0FAA3E0FB9000DBE0FCA3E031
:10088600FDA3E0FEA3E0FF120A629000C71211B4B6
:100896009000B2E075F006A4FF9000AFE0FBA3E085
:1008A600FAA3E02FF9EA35F0FA90000212103F247D
:1008B600FFFDE5F034FFFCE4120D7BC004C005C06B
:1008C60006C0077F0A7ED77D237C3D9000DBE0F8DB
:1008D600A3E0F9A3E0FAA3E0FB120B57D003D00282
:1008E600D001D000120B57E4FBFA79617843120C61
:1008F600609000CB1211B49000B2E075F006A4FF30
:100906009000AFE0FBA3E0FAA3E02FF9EA35F0FA96
:1009160090000212103F24FFFDE5F034FFFCE412C4
:100926000D7BC004C005C006C0077F0A7ED77D23A5
:100936007C3C9000DBE0F8A3E0F9A3E0FAA3E0FB3F
:10094600120B57D003D002D001D000120B57E4FB94
:10095600FA79617843120C609000C7E0F8A3E0F9D9
:10096600A3E0FAA3E0FB120CFD6002502E122160F8
:100976009000B2E075F006A4FF9000AFE0FBA3E0A4
:10098600FAA3E02FF9EA35F0FA7D0612215390001A
:10099600B2E0FF7D01121D137F04229000CBE0FC24
:1009A600A3E0FDA3E0FEA3E0FF9000C7E0F8A3E00C
:1009B600F9A3E0FAA3E0FB120CFD60025024122119
:1009C600609000B2E075F006A4FF9000AFE0FBA3D4
:1009D600E0FAA3E02FF9EA35F0FA7D061221537FFB
:1009E60003229000B2E075F006A4FF9000AFE0FB92
:1009F600A3E0FAA3E02FF9EA35F0FA7D06122153B7
:100A0600020A5C9000B21221A2122160122181908A
:100A160000B2E075F006A4FF9000AFE0FBA3E0FA99
:100A2600A3E02FF9EA35F0FAE4FD1221539000B263
:100A3600E075F006A4FF9000AFE0FBA3E0FAA3E0A8
:100A46002FF9EA35F0FA900001E4120FB690000291
:080A5600E4F5F01210C47F006A
:010A5E002275
:041D1300AB05AA076B
:101D1700900086E0FCA3E0FDA3E0FEA3E0FF9001B6
:101D27003F1211B4AF0274017E00A807088005C3F3
:101D370033CE33CED8F9FFEE3395E0FDFC90014367
:101D47001211B4EB90013F6024E0FCA3E0FDA3E097
:101D5700FEA3E0FFA3E0F8A3E0F9A3E0FAA3E0FB0A
:101D6700EF4BFFEE4AFEED49FDEC488025E0F8A376
:101D7700E0F9A3E0FAA3E0FBA3E0FCA3E0FDA3E006
:101D8700FEA3E0FF121140EB5FFFEA5EFEE95DFD97
:101D9700E85CFC90013F1211B490013FE0FCA3E026
:0D1DA700FDA3E0FEA3E0FF9000860211B452
:101EAF0074017E00A807088005C333CE33CED8F95E
:101EBF00FFEE3395E0FDFC90015F1211B490015FCE
:101ECF00E0FCA3E0FDA3E0FEA3E0FF900086E0F8B6
:101EDF00A3E0F9A3E0FAA3E05FFFEA5EFEE95DFD90
:101EEF00E85CFC90015FE0F8A3E0F9A3E0FAA3E05F
:0D1EFF00FBC312115B70047F0180027F00A5
:011F0C0022B2
:101F0D00EF75F010A4FFAEF0EE3395E0FDFC9001FF
:101F1D00631211B4900163E0FCA3E0FDA3E0FEA306
:101F2D00E0FF900086E0F8A3E0F9A3E0FAA3E05FFC
:101F3D00FFEA5EFEE95DFDE85CFC900163E0F8A35D
:101F4D00E0F9A3E0FAA3E0FBC312115B70047F017B
:041F5D0080027F007F
:011F6100225D
:101FB500EF7F00FE3395E0FDFC9001671211B490B0
:101FC5000167E0FCA3E0FDA3E0FEA3E0FF9000862F
:101FD500E0F8A3E0F9A3E0FAA3E05FFFEA5EFEE91B
:101FE5005DFDE85CFC900167E0F8A3E0F9A3E0FA89
:0F1FF500A3E0FBC312115B70047F0180027F0029
:0120040022B9
:101F6200EF7F00C454F0FE3395E0FDFC90016B124C
:101F720011B490016BE0FCA3E0FDA3E0FEA3E0FF3F
:101F8200900086E0F8A3E0F9A3E0FAA3E05FFFEA9D
:101F92005EFEE95DFDE85CFC90016BE0F8A3E0F910
:101FA200A3E0FAA3E0FBC312115B70047F0180027D
:021FB2007F00AE
:011FB400220A
:1020730090016FEFF030E005E4FF121B6390016FF6
:10208300E030E1057F01121B6390016FE030E20550
:102093007F02121B6390016FE030E3057F03121B85
:0220A3006322B6
:051B6300900170EFF09D
:101B68007E007D007C00E0FF7401A807088005C3A3
:101B780033CE33CED8F9FFEE3395E0FDFC900086E6
:101B8800E0F8A3E0F9A3E0FAA3E0FB121140EB5F51
:101B9800FFEA5EFEE95DFDE85CFC9000861211B488
:101BA800900170E02404FF74017E00A807088005F6
:101BB800C333CE33CED8F9FFEE3395E0FDFC900069
:101BC80086E0F8A3E0F9A3E0FAA3E0FB121140EBEA
:101BD8005FFFEA5EFEE95DFDE85CFC90008612119D
:101BE800B4900170E02408FF74017E00A807088003
:101BF80005C333CE33CED8F9FFEE3395E0FDFC9024
:101C08000086E0F8A3E0F9A3E0FAA3E0FB12114094
:101C1800EB5FFFEA5EFEE95DFDE85CFC9000861282
:101C280011B4900170E0240CFF74017E00A807082D
:101C38008005C333CE33CED8F9FFEE3395E0FDFCF3
:101C4800900086E0F8A3E0F9A3E0FAA3E0FB121104
:101C580040EB5FFFEA5EFEE95DFDE85CFC90008614
:031C68000211B4B2
:10203D00900171EFF0900086E0F8A3E0F9A3E0FACB
:10204D00A3E0FB900171E075F010A4FFAEF0EE334C
:10205D0095E0FDFCEB4FFFEA4EFEE94DFDE84CFC33
:06206D009000860211B490
:10210700900172EFF0900086E0F8A3E0F9A3E0FAFF
:10211700A3E0FB900172E0FE3395E0FDFCEBFFEAE4
:0E2127004EFEE94DFDE84CFC9000860211B41E
:1020A500900173EFF0900086E0F8A3E0F9A3E0FA61
:1020B500A3E0FB900173E0C454F0FE3395E0FDFC12
:1020C500EBFFEA4EFEE94DFDE84CFC90008602115F
:0120D500B456
:0721F900900147E0541FFFB5
:0122000022BB
:1021D50090014DE05480D3940040047F0180027F3C
:0121E50000F9
:0121E60022D6
:1021E700900153E05440D3940040047F0180027F64
:0121F70000E7
:0121F80022C4
:08220100120F2B4480020FA410
:08220900120F2B4440020FA448
:10213500E075F006A4FF9000AFE0FBA3E0FAA3E092
:0E2145002FF9EA35F0FA9000B612117FAD07BF
:0D215300120F2B54E0FFED541F4F020FA49C
:102005009000B2E075F006A4FF9000AFE0FBA3E0FE
:10201500FAA3E02FF9EA35F0FA78597C017D017EC3
:06202500007F06120F050A
:10202B00900159E05420D3940040047F0180027F3B
:01203B0000A4
:01203C002281
:08221100120F2B4420020FA460
:1021A200E075F006A4FF9000AFE0FBA3E0FAA3E025
:0621B2002FF9EA35F0FAF6
:0821B800120F2B54BF020FA40B
:102160009000B2E075F006A4FF9000AFE0FBA3E0A2
:09217000FAA3E02FF9EA35F0FAB8
:08217900120F2B547F020FA48A
:102181009000B2E075F006A4FF9000AFE0FBA3E081
:09219100FAA3E02FF9EA35F0FA97
:08219A00120F2B54DF020FA409
:1021C0004391FC539203439DFCE4F5BD75BC807FB5
:0521D00002FE02000008
:0920D600F582E43400F583E0FF1B
:1020DF00EF4488F5BC000000000000E5BC30E4FBD5
:1020EF0053BCEFAFBD7E00EF7802C333CE33CED8F3
:0720FF00F9FFADBEEF4DFF3C
:0121060022B6
:0122190022A2
:101E40007B047A009000007C017D74AF03AE021227
:101E50000FD8C3E5829FE5839E5053758013E4FF3E
:101E6000FE1222190FBF00010EBE0DF5BFACF275B8
:101E70008026E4FEFF1222190FBF00010EBE0DF5F1
:101E8000BFACF275804CE4FEFF1222190FBF0001B7
:101E90000EBE0DF5BFACF2758089E4FEFF1222196B
:0E1EA0000FBF00010EBE0DF5BFACF2A380997E
:011EAE002211
:100A5F00020E20E86480F8E933E83360110460F097
:100A6F00ED33EC337009E8FCE9FDEAFEEBFF2204FD
:100A7F0060DED3EB9FEA9EE99DE8C2E78CF0C2F7F8
:100A8F0095F0400CE8CCF8E9CDF9EACEFAEBCFFBC4
:100A9F00120DEB85D0F05804700320D5B3E8047025
:100AAF00075002B2D5020E2A92D5EC0460F7E4CCBF
:100ABF00C0E0C398F8603B94186008400DD0E0FB8D
:100ACF00020E02E4FBFAC9FC8028E830E406E4C910
:100ADF00FBE4CAFCE830E305E4C9CACBFCE85407E1
:100AEF006010F8C3E913F9EA13FAEB13FBEC13FCEC
:100AFF00D8F130F52FC3E49CFCEF9BFFEE9AFEED8F
:100B0F0099FDD0E0FBEF4E4D4C701222DB03020E2D
:100B1F0027EC2CFCEF33FFEE33FEED33FDED30E72A
:100B2F00EB020E02EF2BFFEE3AFEED39FDD0E0FBAC
:100B3F0050130BBB0003020E2AED13FDEE13FEEF55
:080B4F0013FFEC13FC020E027F
:100B5700EC4D6011E8497017ED33EC3304600DE498
:100B6700FCFFFEFD22E933E8330470F8020E201281
:100B77000DEB58046009E4CC248150062850090283
:100B87000E2A284003020E27C0E0EB4A7044B980C2
:100B970006D0E0FB020E16EF4E701CBD8008EBFF7F
:100BA700EAFEE9FD80EBE98DF0A4FEE5F0020C40DA
:100BB700E9CDF9EAFEEBFFEF89F0A4FCE5F0CE8979
:100BC700F0A42EFFE435F0CD89F0A42DFEE435F036
:100BD7008067EF4E7005BD80D780C3EF8BF0A4AC64
:100BE700F0EE8BF0A42CFCE435F0F8EF8AF0A42C9F
:100BF700E5F038FCE433CB8DF0A42CFCE5F03BF8B2
:100C0700EE8AF0A42CFCE5F038F8E433CF89F0A4A1
:100C17002CFCE5F038CF3400CE89F0A42FFFE5F0A7
:100C27003EFEE433C98DF0A42EFEE5F039CD8AF0FF
:100C3700A42FFFE5F03EFEE43DFD33D0E0FB500777
:100C47000BBB000F020E2AEC2CFCEF33FFEE33FE3A
:060C5700ED33FD020E0268
:100C5D00020E2AEC5D046005E859047003020E20B3
:100C6D00120DEB580460F6EC4860F2EC7004FDFEDA
:100C7D00FF22C860DB2481C85009C398600250066A
:100C8D00020E279850CAF582E9294B4A7005AB82AE
:100C9D00020E1675F0007C1A7880C3EF9BEE9AED6C
:100CAD0099400DC3EF9BFFEE9AFEED99FDE842F0E2
:100CBD00DC23ACF0D0E0FFD0E0FED0E0FDAB822035
:100CCD00E7101BEB60BAEC2CFCEF33FFEE33FEEDBF
:100CDD0033FD020E02E803F830E705C0F075F000B1
:100CED00EF2FFFEE33FEED33FD40B830E7C280AAA3
:100CFD0074F8CC6480CCC86480C8F58204604FC39E
:100D0D00EB9FF5F0EA9E42F0E99D42F0E89C45F03C
:100D1D00603C501DE5825FFFE582D313CB5BCBF4C6
:100D2D002B5582FB50280ABA002409B900200880EF
:100D3D001DE5825BFBE582D313CF5FCFF4C3132F89
:100D4D005582FF50090EBE00050DBD00010CC3EB11
:100D5D009FF5F0EA9E42F0E99D42F0E89C45F06077
:090D6D0007CC4820E701B3EC2299
:100D760075F020800E75F010800575F0087D007EF8
:100D8600007F003392D530D50312114DEC3340105D
:100D9600EF33FFEE33FEED33FDEC33FCD5F0ED2201
:0E0DA600E5F0247EA2D513CC92E7CDCEFF223D
:100DB400EDD2E7CD33EC3392D524814006E4FFFE37
:100DC400FDFC22FCE4CFCECDCC24E0501174FF8096
:100DD400EDC3CC13CCCD13CDCE13CECF13CF047033
:070DE400F030D5DE02114DD5
:100DEB00E9D2E7C933E833F892D5EDD2E7CD33EC4E
:070DFB0033FC5002B2D522C7
:100E0200EC30E7100FBF000C0EBE00080DBD000451
:100E12000BEB6014A2D5EB13FCED92E7FD2274FFFD
:100E2200FCFDFEFF22E480F8A2D574FF13FC7D8056
:030E3200E480EF6A
:101DC000021E40E493A3F8E493A34003F68001F2DB
:101DD00008DFF48029E493A3F85407240CC8C33324
:101DE000C4540F4420C8834004F456800146F6DFF3
:101DF000E4800B0102040810204080901C6BE47EFC
:101E0000019360BCA3FF543F30E509541FFEE493E7
:101E1000A360010ECF54C025E060A840B8E493A3AE
:101E2000FAE493A3F8E493A3C8C582C8CAC583CAD9
:101E3000F0A3C8C582C8CAC583CADFE9DEE780BE91
:011D120000D0
:100E3500E709F608DFFA8046E709F208DFFA803E9F
:100E450088828C83E709F0A3DFFA8032E309F6088C
:100E5500DFFA8078E309F208DFFA807088828C83F4
:100E6500E309F0A3DFFA806489828A83E0A3F608A8
:100E7500DFFA805889828A83E0A3F208DFFA804C82
:100E850080D280FA80C680D4806980F28033801059
:100E950080A680EA809A80A880DA80E280CA8033C2
:100EA50089828A83ECFAE493A3C8C582C8CCC5833A
:100EB500CCF0A3C8C582C8CCC583CCDFE9DEE7800A
:100EC5000D89828A83E493A3F608DFF9ECFAA9F089
:100ED500EDFB2289828A83ECFAE0A3C8C582C8CCDF
:100EE500C583CCF0A3C8C582C8CCC583CCDFEADEF8
:100EF500E880DB89828A83E493A3F208DFF980CC5A
:100F050088F0EF60010E4E60C388F0ED2402B40452
:100F15000050B9F582EB2402B4040050AF232345F9
:060F25008223900E85738B
:100F2B00BB010689828A83E0225002E722BBFE02C4
:090F3B00E32289828A83E49322F7
:100F4400BB010CE58229F582E5833AF583E0225062
:100F540006E92582F8E622BBFE06E92582F8E222AC
:0D0F6400E58229F582E5833AF583E49322C6
:100F7100BB010FF8E58229F582E5833AF583E02884
:100F8100F0225009C58229F8E58226F622BBFE0926
:100F9100C58229F8E22582F222F8EA2583F583E960
:030FA10093282270
:100FA400BB010689828A83F0225002F722BBFE012C
:020FB400F32226
:100FB600F8BB010DE58229F582E5833AF583E8F071
:100FC600225006E92582C8F622BBFE05E92582C81D
:020FD600F22205
:100FD800EF8DF0A4A8F0CF8CF0A428CE8DF0A42E2D
:020FE800FE22E7
:100FEA00BC000BBE0029EF8DF084FFADF022E4CCEB
:100FFA00F875F008EF2FFFEE33FEEC33FCEE9DECB4
:10100A00984005FCEE9DFE0FD5F0E9E4CEFD22EDF9
:10101A00F8F5F0EE8420D21CFEADF075F008EF2F43
:10102A00FFED33FD4007985006D5F0F222C398FD34
:05103A000FD5F0EA22D1
:10103F00BB0110E58229F582E5833AF583E0F5F0EF
:10104F00A3E0225009E92582F886F008E622BBFECC
:10105F000AE92582F8E2F5F008E222E5832AF58312
:08106F00E993F5F0A3E99322D7
:10107700BB010DC58229C582C5833AC58302122BE0
:101087005011C58229F808E5F026F618F5F0E58233
:1010970036F622BBFE11C58229F808E225F0F5F0E5
:1010A700F218E23582F222F8E58229F582E5832AF1
:0D10B700F58374019325F0F5F0E4933822E1
:1010C400F8BB0111E58229F582E5833AF583E8F05E
:1010D400E5F0A3F0225009E92582C8F608A6F0221B
:0D10E400BBFE09E92582C8F2E5F008F22202
:1010F100E88FF0A4CC8BF0A42CFCE98EF0A42CFC9E
:101101008AF0EDA42CFCEA8EF0A4CDA8F08BF0A41B
:101111002DCC3825F0FDE98FF0A42CCD35F0FCEB7A
:101121008EF0A4FEA9F0EB8FF0A4CFC5F02ECD393F
:0F113100FEE43CFCEAA42DCE35F0FDE43CFC22AC
:0D114000CFF4CFCEF4CECDF4CDCCF4CC2244
:0E114D00C3E49FFFE49EFEE49DFDE49CFC22B3
:10115B00EB9FF5F0EA9E42F0E99D42F0E89C45F0EA
:01116B002261
:10116C00E8600FECC313FCED13FDEE13FEEF13FF61
:03117C00D8F12285
:10117F007401FF3395E0FEFDFCA3A3A3E02FFFF066
:10118F00E582158270021583E03EFEF0E58215823E
:10119F0070021583E03DFDF0E58215827002158324
:0511AF00E03CFCF02211
:0C11B400ECF0A3EDF0A3EEF0A3EFF022AE
:1011C000A8828583F0D083D0821211D71211D71252
:1011D00011D71211D7E473E493A3C583C5F0C58377
:1011E000C8C582C8F0A3C583C5F0C583C8C582C879
:0111F00022DC
:1011F100D083D082E4937012740193700DA3A393F2
:10120100F8740193F5828883E4737402936C70120D
:101211007403936D700C7404936E70067405936F70
:0A12210060DDA3A3A3A3A3A380CA6A
:10122B00C5F0F8A3E028F0C5F0F8E582158270024E
:06123B001583E038F022EB
:00000001FF
